{
  "contractName": "Voting",
  "abi": [
    {
      "constant": true,
      "inputs": [
        {
          "name": "",
          "type": "bytes32"
        }
      ],
      "name": "variants",
      "outputs": [
        {
          "name": "",
          "type": "uint256"
        }
      ],
      "payable": false,
      "stateMutability": "view",
      "type": "function"
    },
    {
      "constant": true,
      "inputs": [],
      "name": "owner",
      "outputs": [
        {
          "name": "",
          "type": "address"
        }
      ],
      "payable": false,
      "stateMutability": "view",
      "type": "function"
    },
    {
      "constant": true,
      "inputs": [
        {
          "name": "",
          "type": "address"
        }
      ],
      "name": "voters",
      "outputs": [
        {
          "name": "",
          "type": "bool"
        }
      ],
      "payable": false,
      "stateMutability": "view",
      "type": "function"
    },
    {
      "constant": true,
      "inputs": [],
      "name": "state",
      "outputs": [
        {
          "name": "",
          "type": "uint8"
        }
      ],
      "payable": false,
      "stateMutability": "view",
      "type": "function"
    },
    {
      "inputs": [],
      "payable": false,
      "stateMutability": "nonpayable",
      "type": "constructor"
    },
    {
      "constant": false,
      "inputs": [
        {
          "name": "name",
          "type": "bytes32"
        }
      ],
      "name": "addVariant",
      "outputs": [],
      "payable": false,
      "stateMutability": "nonpayable",
      "type": "function"
    },
    {
      "constant": false,
      "inputs": [
        {
          "name": "voterAddress",
          "type": "address"
        }
      ],
      "name": "addVoter",
      "outputs": [],
      "payable": false,
      "stateMutability": "nonpayable",
      "type": "function"
    },
    {
      "constant": false,
      "inputs": [],
      "name": "startVoting",
      "outputs": [],
      "payable": false,
      "stateMutability": "nonpayable",
      "type": "function"
    },
    {
      "constant": false,
      "inputs": [
        {
          "name": "name",
          "type": "bytes32"
        }
      ],
      "name": "addVote",
      "outputs": [],
      "payable": false,
      "stateMutability": "nonpayable",
      "type": "function"
    },
    {
      "constant": false,
      "inputs": [],
      "name": "finishVoting",
      "outputs": [],
      "payable": false,
      "stateMutability": "nonpayable",
      "type": "function"
    },
    {
      "constant": true,
      "inputs": [
        {
          "name": "name",
          "type": "bytes32"
        }
      ],
      "name": "getResults",
      "outputs": [
        {
          "name": "count",
          "type": "uint256"
        }
      ],
      "payable": false,
      "stateMutability": "view",
      "type": "function"
    }
  ],
  "bytecode": "0x608060405234801561001057600080fd5b50336000806101000a81548173ffffffffffffffffffffffffffffffffffffffff021916908373ffffffffffffffffffffffffffffffffffffffff16021790555060008060146101000a81548160ff0219169083600281111561006f57fe5b0217905550610d58806100836000396000f3fe6080604052600436106100a4576000357c0100000000000000000000000000000000000000000000000000000000900463ffffffff1680631ec6b60a146100a95780632d454c6d146100c05780632e64eb3c146100fb57806346475c4c1461014a5780634dfa8bd9146101995780638da5cb5b146101d4578063a3ec138d1461022b578063c19d93fb14610294578063f4ab9adf146102cd578063f90943031461031e575b600080fd5b3480156100b557600080fd5b506100be610335565b005b3480156100cc57600080fd5b506100f9600480360360208110156100e357600080fd5b81019080803590602001909291905050506104be565b005b34801561010757600080fd5b506101346004803603602081101561011e57600080fd5b8101908080359060200190929190505050610739565b6040518082815260200191505060405180910390f35b34801561015657600080fd5b506101836004803603602081101561016d57600080fd5b8101908080359060200190929190505050610751565b6040518082815260200191505060405180910390f35b3480156101a557600080fd5b506101d2600480360360208110156101bc57600080fd5b810190808035906020019092919050505061080f565b005b3480156101e057600080fd5b506101e961098d565b604051808273ffffffffffffffffffffffffffffffffffffffff1673ffffffffffffffffffffffffffffffffffffffff16815260200191505060405180910390f35b34801561023757600080fd5b5061027a6004803603602081101561024e57600080fd5b81019080803573ffffffffffffffffffffffffffffffffffffffff1690602001909291905050506109b2565b604051808215151515815260200191505060405180910390f35b3480156102a057600080fd5b506102a96109d2565b604051808260028111156102b957fe5b60ff16815260200191505060405180910390f35b3480156102d957600080fd5b5061031c600480360360208110156102f057600080fd5b81019080803573ffffffffffffffffffffffffffffffffffffffff1690602001909291905050506109e5565b005b34801561032a57600080fd5b50610333610ba3565b005b6000809054906101000a900473ffffffffffffffffffffffffffffffffffffffff1673ffffffffffffffffffffffffffffffffffffffff163373ffffffffffffffffffffffffffffffffffffffff161415156103f9576040517f08c379a00000000000000000000000000000000000000000000000000000000081526004018080602001828103825260208152602001807f4f6e6c79206f776e6572206d61792063616c6c2074686973206d6574686f642181525060200191505060405180910390fd5b600080600281111561040757fe5b600060149054906101000a900460ff16600281111561042257fe5b141515610497576040517f08c379a00000000000000000000000000000000000000000000000000000000081526004018080602001828103825260158152602001807f496e76616c696420766f74696e6720737461746521000000000000000000000081525060200191505060405180910390fd5b6001600060146101000a81548160ff021916908360028111156104b657fe5b021790555050565b60018060028111156104cc57fe5b600060149054906101000a900460ff1660028111156104e757fe5b14151561055c576040517f08c379a00000000000000000000000000000000000000000000000000000000081526004018080602001828103825260158152602001807f496e76616c696420766f74696e6720737461746521000000000000000000000081525060200191505060405180910390fd5b60001515600260003373ffffffffffffffffffffffffffffffffffffffff1673ffffffffffffffffffffffffffffffffffffffff16815260200190815260200160002060009054906101000a900460ff161515141515610624576040517f08c379a000000000000000000000000000000000000000000000000000000000815260040180806020018281038252600d8152602001807f43616e206e6f7420766f7465210000000000000000000000000000000000000081525060200191505060405180910390fd5b60006001600084815260200190815260200160002054141515156106b0576040517f08c379a000000000000000000000000000000000000000000000000000000000815260040180806020018281038252600e8152602001807f57726f6e672076617269616e742100000000000000000000000000000000000081525060200191505060405180910390fd5b6001806000848152602001908152602001600020540160016000848152602001908152602001600020819055506001600260003373ffffffffffffffffffffffffffffffffffffffff1673ffffffffffffffffffffffffffffffffffffffff16815260200190815260200160002060006101000a81548160ff0219169083151502179055505050565b60016020528060005260406000206000915090505481565b6000600280600281111561076157fe5b600060149054906101000a900460ff16600281111561077c57fe5b1415156107f1576040517f08c379a00000000000000000000000000000000000000000000000000000000081526004018080602001828103825260158152602001807f496e76616c696420766f74696e6720737461746521000000000000000000000081525060200191505060405180910390fd5b60018060008581526020019081526020016000205403915050919050565b6000809054906101000a900473ffffffffffffffffffffffffffffffffffffffff1673ffffffffffffffffffffffffffffffffffffffff163373ffffffffffffffffffffffffffffffffffffffff161415156108d3576040517f08c379a00000000000000000000000000000000000000000000000000000000081526004018080602001828103825260208152602001807f4f6e6c79206f776e6572206d61792063616c6c2074686973206d6574686f642181525060200191505060405180910390fd5b60008060028111156108e157fe5b600060149054906101000a900460ff1660028111156108fc57fe5b141515610971576040517f08c379a00000000000000000000000000000000000000000000000000000000081526004018080602001828103825260158152602001807f496e76616c696420766f74696e6720737461746521000000000000000000000081525060200191505060405180910390fd5b6001806000848152602001908152602001600020819055505050565b6000809054906101000a900473ffffffffffffffffffffffffffffffffffffffff1681565b60026020528060005260406000206000915054906101000a900460ff1681565b600060149054906101000a900460ff1681565b6000809054906101000a900473ffffffffffffffffffffffffffffffffffffffff1673ffffffffffffffffffffffffffffffffffffffff163373ffffffffffffffffffffffffffffffffffffffff16141515610aa9576040517f08c379a00000000000000000000000000000000000000000000000000000000081526004018080602001828103825260208152602001807f4f6e6c79206f776e6572206d61792063616c6c2074686973206d6574686f642181525060200191505060405180910390fd5b6000806002811115610ab757fe5b600060149054906101000a900460ff166002811115610ad257fe5b141515610b47576040517f08c379a00000000000000000000000000000000000000000000000000000000081526004018080602001828103825260158152602001807f496e76616c696420766f74696e6720737461746521000000000000000000000081525060200191505060405180910390fd5b6000600260008473ffffffffffffffffffffffffffffffffffffffff1673ffffffffffffffffffffffffffffffffffffffff16815260200190815260200160002060006101000a81548160ff0219169083151502179055505050565b6000809054906101000a900473ffffffffffffffffffffffffffffffffffffffff1673ffffffffffffffffffffffffffffffffffffffff163373ffffffffffffffffffffffffffffffffffffffff16141515610c67576040517f08c379a00000000000000000000000000000000000000000000000000000000081526004018080602001828103825260208152602001807f4f6e6c79206f776e6572206d61792063616c6c2074686973206d6574686f642181525060200191505060405180910390fd5b6001806002811115610c7557fe5b600060149054906101000a900460ff166002811115610c9057fe5b141515610d05576040517f08c379a00000000000000000000000000000000000000000000000000000000081526004018080602001828103825260158152602001807f496e76616c696420766f74696e6720737461746521000000000000000000000081525060200191505060405180910390fd5b6002600060146101000a81548160ff02191690836002811115610d2457fe5b02179055505056fea165627a7a72305820709359a111f22929550e8708422a1cd3ec2a4f12b4a880d042cf0cccf11235c40029",
  "source": "pragma solidity ^0.5.0;\n\ncontract Voting {\n  enum State { Created, Started, Finished }\n\n  address public owner;\n\n\tState public state;\n\n  mapping(bytes32 => uint) public variants;\n  mapping(address => bool) public voters;\n\n  constructor() public {\n    owner = msg.sender;\n    state = State.Created;\n  }\n\n  modifier byOwner() {\n    require(msg.sender == owner, \"Only owner may call this method!\");\n      _;\n\t}\n\n  modifier correctState(State _state) {\n\t\trequire(state == _state, \"Invalid voting state!\");\n      _;\n\t}\n\n  function addVariant(bytes32 name) public byOwner correctState(State.Created) {\n    variants[name] = 1;\n  }\n\n  function addVoter(address voterAddress) public byOwner correctState(State.Created) {\n    voters[voterAddress] = false;\n  }\n\n  function startVoting() public byOwner correctState(State.Created) {\n    state = State.Started;\n  }\n\n  function addVote(bytes32 name) public correctState(State.Started) {\n    require(voters[msg.sender] == false, 'Can not vote!');\n    require(variants[name] != 0, 'Wrong variant!');\n    variants[name] = variants[name] + 1;\n    voters[msg.sender] = true;\n  }\n\n  function finishVoting() public byOwner correctState(State.Started) {\n    state = State.Finished;\n  }\n\n  function getResults(bytes32 name) public correctState(State.Finished) view\n    returns (uint count)\n  {\n    count = variants[name] - 1;\n  }\n}",
  "sourcePath": "/home/user/Documents/projects/voices/voting/contracts/Voting.sol",
  "compiler": {
    "name": "solc",
    "version": "0.5.0+commit.1d4f565a.Emscripten.clang"
  },
  "schemaVersion": "3.0.11",
  "updatedAt": "2019-11-18T07:52:47.002Z",
  "devdoc": {
    "methods": {}
  },
  "userdoc": {
    "methods": {}
  }
}